:100000006F00E079000000004A0100004C01000090
:1000100000000000000000000000000000000000E0
:1000200000000000000000000000000000000000D0
:100030009C070000000000009C070000000000007A
:100040009C0700009C0700009C0700009C07000024
:100050009C0700009C0700009C0700009C07000014
:100060009C0700009C0700009C0700009C07000004
:100070009C0700009C0700009C0700009C070000F4
:10008000660300009C0700009C0700009C0700001E
:100090009C0700009C0700009C0700000000000077
:1000A000511126C022C206C4828282441244A24058
:1000B000310182802A86014593F6150091C232955E
:1000C00085810606F5F9828000000000634E050276
:1000D00063C305042E86AA857D5515C285466378BF
:1000E000B6006356C00006068606E36CB6FE014500
:1000F00063E4C500918D558D85820582F5FA828075
:100100008682C93F2E8582823305A04063D70500D1
:10011000B305B040C1B7B305B0408682653F330533
:10012000A0408282868263C70500634905005D376F
:100130002E858282B305B040E35B05FE3305A04007
:10014000513F3305B0408282000001A0B707EFBEE7
:1001500037E700E0938707083CC701A0EFF25FF4A0
:100160006111B307B5002A843EC21C20C145371572
:1001700001403EC0EF00A07513058006EF00901B04
:1001800081448247C14537150140B3D79740858BDD
:1001900095CBEF00807313058006EF00B01985043E
:1001A000A147E390F4FEC14537150140EF00E0712F
:1001B00013058006EF00101892470504E317F4FAC0
:1001C0002101E5B5EF00A070F9B7EFF27FED116501
:1001D0005111854513055503EF00E07AC1473714E7
:1001E00001403EC48D473EC28A8591471305048075
:1001F0007C80EF00C065D9478A85371501407C8037
:10020000EF00E064930700047C808A859147130522
:1002100004403EC4EF00A063310141BD711102C032
:100220001307700C82476354F700110182808247E4
:1002300085073EC0C5BFEFF2BFE62A84A1449317ED
:100240008401E187914563D90702B71701401385FF
:100250000780EF008067914537150140EF00E066A9
:10026000753F9145371501400604FD14EF002066E7
:100270001374F40FE9F415BDB71701401385078017
:10028000EF00E064C9BFEFF2BFE12E84AA84894584
:10029000371501402D2D59372685713F2285613F45
:1002A000B53F8945371501400D2501B5EFF25FDFF8
:1002B000054422858145C13F05041374F40FA54709
:1002C000E319F4FEDDB3EFF2BFDD8147130700044D
:1002D0003357F740058B9305000611E381451384DE
:1002E00017001375F40F45372147A287E310E4FE8A
:1002F0006DBBEFF2FFDA9307300661112A84930495
:10030000300663C6A700AA84635305008144A9454B
:100310002685093D2AC0A94526854D3BAA868544E8
:10032000056682471305864E1383F4FFAA978C2334
:10033000A547B3D565408589960563DA870036956C
:100340001C21B3D76740858B99C393E5050413F54A
:10035000F40F36C20D3F8504A54792460566E39229
:10036000F4FC210199B3711122C037440140930577
:10037000505213050480EF00E0741DC5130504807E
:10038000EF00C073138741981E2383D661988507B9
:1003900093F7F70F638AD70012236205938641888B
:1003A0006185B29688A21EA3024411017300203019
:1003B000EFF21FCF896741113744014093870758F7
:1003C00002C43EC08A859147130504807C8502C221
:1003D00002C6C92B054613050480930550526525B6
:1003E000B7E700E0054723A2E71085451305048021
:1003F000412541015DB9EFF2BFCA3571892C0D2E3F
:10040000EF000070D9338945371501407D29C1457A
:10041000371501405D291305800CEF0040758145BB
:100420003D45953581452545B93D9D452D45A13D28
:10043000BD452945893D85453145B135853D8D3FD2
:100440001305803EEF00A0720565C14513054551B7
:10045000313313054006EF0080710565C145130572
:100460004552ED3913054006EF0060700565C14542
:1004700013054550E53113054006EF00406F056553
:10048000C1451305454FD93913054006EF00206ECD
:100490000565B94513054554D13113054006EF00F4
:1004A000006D153503A70188B70500201384018866
:1004B00013854188138385033A86B54493866198F2
:1004C000938741989A229E23C207C183E387E7FE60
:1004D0009E22AA979C239A22E20705071377F70F1B
:1004E000E1879AA2E38C97FC29476396E706B30756
:1004F000C300238007009306E0079307F6FF014738
:10050000E3ECF6FA9385850305060810EF00706D9D
:10051000B715000093850554081023200400EF0050
:10052000707949D102C802CA02CC02CE8147814605
:1005300001479305C0021D45214310103E96030656
:10054000060031CE6317B60005076311A702938634
:1005500017008507DDB71307E0076347C7003307B8
:10056000C3001CA3050691BF014681BFE31367FECC
:10057000958F1386F7FF3947E366C7F201471008E6
:10058000B305E60008103386E6002A961022050718
:1005900090A1E396E7FE1811BA97238807F6830720
:1005A0000101E38107F01C083EC0B717000083A4D7
:1005B0004753B717000083A7875302C213040000F4
:1005C0003EC482470385070009EDB717000083A5E5
:1005D000C7532285EF00F015635505060145113B11
:1005E000D1B59307E002630BF504130505FD93777E
:1005F000F50F2547E36BF7FCEF00704B124711EF47
:10060000A2452AC62285EF00901BB247BE85692B02
:100610002A84824785073EC06DB7AA852685EF00EC
:10062000101AAA8522854923B717000083A54753CE
:100630002A842685EF00B018AA84E1BF85473EC210
:10064000C9BF2285EF00B040E34E05E449BFEFF299
:100650003FA5371402401C403707FFF8414593E798
:1006600017001CC05C40F98F5CC01C403707F7FEC8
:100670007D17F98F1CC01C403707FCFF7D17F98FD1
:100680001CC05C4041777D17F98F5CC0B7079F00A5
:100690001CC481241C4C93E707021CCCB7170140F3
:1006A00003A70740938607401377F7F023A0E7409E
:1006B00003A707401367070823A0E74089479CCAA0
:1006C000B7F7FF1F03C5477D9307F00F6304F500DD
:1006D0007D890124B72702409843C176FD16719B9E
:1006E00098C398431367170098C3B7170240D843BD
:1006F000D8C3D843758FD8C3D843B7060001D8C331
:100700009843558F98C3984393166700E3DD06FE20
:10071000D843B7160240719BD8C3D843136727004C
:10072000D8C32147DC42B18BE39EE7FE6FF0FF9711
:10073000EFF21F97371702405C43370400209146C1
:10074000B18B130404016385D700A1466382D704EB
:10075000B7376E01938707601CC0B7160240DC42B2
:100760000840918313F7F700B7070020938707002D
:10077000BA978C23DC4293F5F50F93F707083357AC
:10078000B50081E7EFF01F952A8718C06FF0FF9141
:100790005C43B777DC02938707C07DBF01A0970158
:1007A00000209381A109138181FC1305000A97059C
:1007B000002093852585170600201306A68463FA7A
:1007C000C5008322050023A0550011059105E3EA29
:1007D000C5FE17150000130525EC9705002093852D
:1007E0006582170600201306668563FAC50083221A
:1007F000050023A0550011059105E3EAC5FE170584
:1008000000201305A5839385C1986377B500232045
:1008100005001105E36DB5FEB72200009382028842
:10082000739002308D427390428097F2FFFF938263
:10083000627D93E2320073905230EFF05FE19702F5
:100840000000938282BB7390123473002030944571
:1008500093F7060193F2F60081C7DC41B3E2F200A0
:1008600083D3050093F7F30FA5C30323050061119C
:1008700022C226C0814713048002930480040547E6
:100880003316F70033F7C3006312E602939527008F
:100890003D473317B7001347F7FF33736700B3952E
:1008A000B20033E36500639D860050C98507214788
:1008B000E397E7FC124423206500824421018280F3
:1008C000E39696FE10C9DDB782800CC982804CC9C0
:1008D0008280371702401C430E0593F777F05D8D39
:1008E00008C38280EFF2CFFB371702405C4391468A
:1008F0002A84B18B6385D700A1466380D708B737B8
:100900006E01938707601CC0B7160240DC429183DA
:1009100013F7F700B707002093878702BA978C2355
:10092000DC42184093F5F50F93F707083355B700ED
:1009300081E73A85EFF00FFA48C008C448C4B717FA
:100940000240DC438D46AD83FD8B13D737008A0709
:10095000F18BD98F13F6370113F7370063F4C60014
:10096000138747FFB707002093874701BA978C2367
:10097000EFF04FF608C86FF04FF35C43B777DC0237
:10098000938707C049B799C5371702401C4F5D8D43
:1009900008CF8280B7170240984F1345F5FF798D35
:1009A00088CF8280EFF2CFEF1629F577FD17F58F0C
:1009B000F621DA252111D58F1EA95625FD779387BB
:1009C000379FF58FD6212A842EC0D58F9625D58FB7
:1009D000B625D58F5EA55E29C207C18393F7F7CFF1
:1009E0005D8F5AA94800FD3DB747014093870780B6
:1009F00082456312F406C2475A24139517003E95A8
:100A000042070E0541873E958C41635807048605D1
:100A1000EFF04FEC930540062AC0EFF0AFEB8247B2
:100A200093144500930540063E85EFF06FED5E247C
:100A3000C207C18763D507020E059305400613055B
:100A40002503EFF02FE91D89C98CC204C18006A4DB
:100A500061016FF08FE5B24745B78A0555BF1205B2
:100A60009305400613052503EFF0CFE63D89E9BF66
:100A700091C55E250967D98F5EA582805A25F977D1
:100A8000FD17F98FD5BF13F7F50F85471583B3957C
:100A9000B7006319F7009307C500984301CED98DBD
:100AA0008CC38280894693074501E318D7FE9307DC
:100AB0000501E5B793C5F5FFF98DDDB74A2113753B
:100AC000F51F828013F7F50F85461583B397B6009F
:100AD0006311D7025A25F98F1A2101454207418334
:100AE00081CB0545A181B315B5006D8F3335E0008D
:100AF000828089466314D7001A29F1BF5A29E1BFC1
:100B0000EFF20FDAB707002003A50701B7157A0047
:100B100093850520EFF00FDC1375F50F2385A19861
:100B200093175500898F8A073E950E052394A19847
:100B30006FF0AFD7EFF2CFD637F400E05C40AA8574
:100B4000F99B5CC003C5A198EFF0CFD608C8232459
:100B500004001C4093E717001CC0B7F700E0D8431F
:100B6000058B75DF9843799B98C36FF00FD4EFF234
:100B70002FD337F400E05C40AA85F99B5CC003D515
:100B80008198EFF02FD308C8232404001C4093E77A
:100B900017001CC0B7F700E0D843058B75DF9843FA
:100BA000799B98C36FF06FD0370780007D17411194
:100BB0003373A70013D675019312330022C4135464
:100BC00075011374F40F6D8F26C21376F60F9354CC
:100BD000F50116C006C6FD819A87A2862685931365
:100BE0003700B302C440638DB40E6351500C6307E9
:100BF00006149307F00F630CF414B7070004B3E373
:100C0000F300ED4763C7572893070002B3875740A7
:100C1000B397F300B3D25300B337F000B3E7F20059
:100C20000247B307F74013975700635E071837036F
:100C300000047D13B3F767003E853EC0252F824731
:100C40006D15B397A7006346851A018D050513033B
:100C500000023303A3403393670033336000B3D7FC
:100C6000A700B3E76700014413F7770019C713F72C
:100C7000F70091466303D700910713975700635815
:100C8000071405041307F00F26856300E4169A077E
:100C9000A5839376F40FB2402244A607DE06A5830F
:100CA0007E05DD8E9244558D410182806399020A52
:100CB000130614001376E60F631806146316042255
:100CC000024663020620E38803FC0247B30777402D
:100CD00013965700635A0622B387E340AE8469B780
:100CE0006359500A49CE9307F00F6302F406B70721
:100CF0000004B3E3F300ED4763C4572093070002F9
:100D0000B3875740B397F300B3D25300B337F00023
:100D1000B3E7F2000247BA97139757006355070AE3
:100D200005041307F00F6302E40CB706007E13D727
:100D30001700FD16858B758FD98F3DB7638B030820
:100D4000FD12638702189307F00FE31CF4EA630DAA
:100D5000030801459306F00FB70740002DBFB30706
:100D6000864065EC824663850614FD176383071A87
:100D70009306F00F631CD60EAE843A83C9BF638A14
:100D80000304FD12638302129307F00FE315F4F6D8
:100D90007DBF6398020805041376E40F631E0612F4
:100DA000639C06100246630B0616E38603EEB30748
:100DB000760013975700014463570700370700FC7C
:100DC0007D17F98F054413F77700E31207EA13D371
:100DD00037009307F00FE30CF4F693179300A58305
:100DE0009376F40F268545BD26859306F00F81473F
:100DF0005DB5370300FC7D13B3F7670013F7770089
:100E0000098CE31607E6E1B78247B387774013976B
:100E100057006342070EE39107E20145814681478F
:100E20009DBDB307864025E88246FDCAFD17F5CF74
:100E30009306F00FE303D6F46D476346F70E824640
:100E4000130700021D8F3397E600B3D7F600333740
:100E5000E000D98F9E973284C1B59306F00FE30D61
:100E6000D6F0824637070004558F3AC06D47634B72
:100E7000F7088246130700021D8F3397E600B3D7A9
:100E8000F6003337E000D98FB387F3403284AE8465
:100E900059BB854771B39306F00FE300D6EE824647
:100EA00037070004558F3AC041BF82479E97ADB5C2
:100EB0003A833284AE8431BF93173300E38F07EA5D
:100EC000E38703E879B5638303042E85BA87E1B32A
:100ED0008247B387774081BB9307F00FE307F4F0B5
:100EE00082479E978583C5B593173300F1FBE38254
:100EF00003E6AE8459B58247AE84B387F3402DBB79
:100F0000854709BD854749B7E39F07EA0145814702
:100F100059B3B387D3403284AE8431B3BA87A5BB0B
:100F20003A8332847DB5854735B7B38776003284FE
:100F3000E5B313567501B7078000FD1713D7750188
:100F40001376F60F1303F00FB3F2A7009356F501D3
:100F5000ED8F1377F70FFD81630766026309670062
:100F600005EA11EB89EB0145639B0200828009458C
:100F7000F5FF65DA31A8638C02026380B60405458B
:100F8000F5D67D5582800945639802026304C70245
:100F900011E3F5D7E395B6FEE343C7FE6347E600EA
:100FA000E3EF57FC0145E3F3F2FC99E2D9BFF1D935
:100FB00005458280E5D3828082800146C5B7011154
:100FC00022CC1354750126CA06CE931495001374CF
:100FD000F40FA5809356F5014DCC9307F00F630CE9
:100FE000F40CB70700048E04DD8C130414F8814759
:100FF000014613D57501139795001375F50F2583D9
:10100000FD814DC51303F00F630D65020E07130537
:1010100015F837030004336767002A9481431305EA
:10102000140033C3B6002AC03D459A826362F510AE
:1010300017050000130545528A07AA979C433E9561
:1010400002851304F40F61EB93E727008943C1BFC6
:1010500001431307F00FB7074000F2406244A607B0
:101060005E07A5831315F301D98FD2445D8D056109
:101070008280AE82BA841E8689476306F60A8D474F
:10108000E308F6FC85471683631EF61A014781477D
:10109000E9B7B5E013D57501139795001375F50FF2
:1010A0009147014405462583FD8129FD19EB93E70E
:1010B00017008543ADB79DE8A1471304F00F09461B
:1010C0000DBF3A8532C83EC62EC436C23AC05D2432
:1010D00002471303B5FF098C331767001304A4F804
:1010E00081439246A245B247424615BFB147130419
:1010F000F00F0D46FDBD26852EC236C0A52C9307E8
:10110000B5FF1304A0F8B394F400098C814701469D
:1011100082469245F9BD93E737008D4309B7894769
:10112000B682E31EF6F416831307F00F814735B736
:10113000C167FD17B3F3F400F98FC18041831E85A9
:10114000BE85EFE03FF7AA82BA851E85EFE09FF6E5
:10115000AA83BE852685EFE0FFF5AA87BA85268596
:10116000EFE05FF513D70201BE93BA9363F4F30087
:10117000C1673E95C167FD17B3F4F300C204B3F233
:10118000F200A6929394620093D30301B3349000CB
:1011900093D2A201AA93B3E2540093946300B3E400
:1011A00054009397440063D70700024493D7140078
:1011B0008588DD8C1307F407635FE00293F7740002
:1011C00099C793F7F40091466383D70091049397EE
:1011D000440063D80700B70700F8FD17FD8C13071C
:1011E00004089307E00F63CBE70493976400A5839B
:1011F0001377F70F9DB58547B386E74011C76D4656
:1012000001478147E34BD6E41304E4093394840097
:10121000B3D7D400B3348000C58F13F7770019C754
:1012200013F7F70091466303D70091071397570010
:10123000634C07009A07A583014705B51307F00F14
:10124000814721BD0244BDB70547814739B53706FF
:101250008000935775011307F6FF93F7F70F930577
:10126000E007698F9356F50163FCF5009305D009FB
:1012700063FAF500370500801345F5FF3695828047
:101280000145828093055009518F63CDF500130607
:101290006009B307F640B357F7003305F040F5F2A5
:1012A0003E8582809387A7F6B317F700FDB75111EB
:1012B00006C422C226C00DCD9357F54133C4A70002
:1012C0001D8CAA8422857D209307E0093387A740DF
:1012D00093076009FD8063CCE702A1469377F70F7F
:1012E00063D5A60061153314A4002604258021A02F
:1012F000814481470144260413559400A2401244BE
:10130000DE07FE045D8D458D8244310182809307A6
:10131000900963DDE7009307B5019546B317F40024
:10132000898EB356D4003334F000558C954763D67C
:10133000A7009307B5FF3314F400B70600FCFD16B1
:10134000937774003376D40085C39377F400914586
:10135000638CB70011069317560063D707009307F5
:10136000F009758E3387A7401314660025809377A4
:10137000F70F51B7C167637CF5029307F00F1307AE
:10138000000263EBA700970700009387E720AA9766
:1013900088233305A7408280218197070000938727
:1013A000A71FAA97882361473305A7408280B70704
:1013B0000001636DF5006181970700009387C71DE9
:1013C000AA97882321473305A74082804181970748
:1013D00000009387671CAA97882341473305A740DD
:1013E0008280B3C7A5008D8B3307C50081E78D4789
:1013F00063E7C702AA87637EE50A9421850785050E
:10140000A38FD7FEE3EBE7FE828094218507850555
:10141000A38FD7FEE3EBE7FE0244110182809376AF
:101420003500AA8789CA942185078505A38FD7FE31
:1014300093F63700C5BF9376C7FF138606FE63F5A4
:10144000C706711122C0C04903A3050083A385000C
:10145000C0CB804D23A0670003A3450080CFC04DC3
:1014600023A2670083A2C50003A30501938545025B
:10147000C0CF03A4C5FF23A4770023A6570023A849
:1014800067009387470223AE87FEE3EEC7FAE3F3D4
:10149000D7F890419107910523AEC7FECDBF90418B
:1014A0009107910523AEC7FEE3EBD7FEE3E7E7F430
:1014B0008280828018219C2101E791C301458280AE
:1014C000814739A01C3113071500EDDB81473A85B0
:1014D0003387F500182365D7B306F5009422E3930C
:1014E000E6FE85072A87E5B73F065B4F666D7D07F9
:1014F0007F6F0000B56206010800F00000000000E8
:101500000000FF23B56206010800F00100000000A2
:101510000000002AB56206010800F0020000000089
:1015200000000131B56206010800F0030000000070
:1015300000000238CDCCCC3D000020419A99993F63
:1015400056544700B56206080600C80001000100B5
:10155000DE6A0000DCFBFFFF20FBFFFF20FBFFFF3C
:101560001EFBFFFF24FBFFFF24FBFFFFFCFAFFFF36
:101570001EFBFFFF24FBFFFFFCFAFFFF24FBFFFF26
:101580001EFBFFFFCAFBFFFFCAFBFFFFCAFBFFFFFB
:10159000FCFAFFFF00010202030303030404040436
:1015A00004040404050505050505050505050505EF
:1015B00005050505060606060606060606060606CF
:1015C00006060606060606060606060606060606BB
:1015D000060606060707070707070707070707079F
:1015E000070707070707070707070707070707078B
:1015F000070707070707070707070707070707077B
:10160000070707070707070707070707070707076A
:10161000070707070808080808080808080808084E
:10162000080808080808080808080808080808083A
:10163000080808080808080808080808080808082A
:10164000080808080808080808080808080808081A
:10165000080808080808080808080808080808080A
:1016600008080808080808080808080808080808FA
:1016700008080808080808080808080808080808EA
:1016800008080808080808080808080808080808DA
:041690000808080836
:1016940001020304050607080102030405060708FE
:1016A400006CDC020204060804080C100810182060
:1016B4001020304020406080010203040506070822
:0816C4000102030405060708FA
:00000001FF
